:100000000C9434000C9451000C9451000C94510049
:100010000C9451000C9451000C9451000C9451001C
:100020000C9451000C9451000C9451000C9451000C
:100030000C9451000C9439010C9451000C94510013
:100040000C9451000C9451000C94E3010C94110297
:100050000C9451000C944E010C9451000C945100DE
:100060000C9451000C94510011241FBECFEFD8E026
:10007000DEBFCDBF11E0A0E0B1E0EEE5F5E002C0EB
:1000800005900D92A835B107D9F721E0A8E5B1E0B8
:1000900001C01D92AD3DB207E1F70E94F6000C943D
:1000A000AD020C940000299A85E08A95F1F70000D2
:1000B00029980895CF93C82F662311F0289A01C07C
:1000C0002898549A559A569A579A5F985E985D98D0
:1000D0005C98CC230CF45F9AC6FD5E9AC5FD5D9AD0
:1000E000C4FD5C9A0E9453005F985E985D985C988E
:1000F000C3FD5F9AC2FD5E9AC1FD5D9AC0FD5C9A28
:100100000E9453005C9A5D9A5E9A5F9A87EB9BE02F
:100110000197F1F700C00000CF91089560E00E94C0
:100120005A000895611104C080580E948E000895FD
:1001300080540E948E00089581E00E948E000895F0
:1001400061E00E945A000895CF93DF93EC0121965D
:10015000FC018081882329F00E94A00089918111EF
:10016000FBCFDF91CF910895CF93C82F209A559A56
:10017000219A549A559A569A579A8FEF99EF019768
:10018000F1F700C000005D9A5C9A0E9453008FE175
:100190009EE40197F1F700C000000E9453008FEF2A
:1001A00090E00197F1F700C000000E9453008FEF2C
:1001B00090E00197F1F700C000005C980E945300A6
:1001C0008FEF90E00197F1F700C0000088E20E94F5
:1001D0008E0088E00E948E000E949C0086E00E94B3
:1001E0008E008C2F0E948E00CF9108958CE00E948B
:1001F000B40060E081E00E9492008BE091E00E94F8
:10020000A400ECE7F0E080818064808380818F77B8
:1002100080838081877F808380818B7F80838081C2
:100220008D7F808380818E7F8083EAE7F0E080810C
:1002300080688083808188608083808184608083FF
:10024000808182608083808181608083E1E8F0E04A
:1002500080818B7F8083808183608083EFE6F0E004
:1002600080818160808387E690E00E943B027894E1
:10027000FFCF1F920F920FB60F9211248F93EF931F
:10028000FF93EAE7F0E0808180648083FF91EF9143
:100290008F910F900FBE0F901F9018951F920F9285
:1002A0000FB60F9211240F931F932F933F934F93E9
:1002B0005F936F937F938F939F93AF93BF93EF93CE
:1002C000FF93CF93DF93CDB7DEB72A97DEBFCDBFC5
:1002D00000917800109179008AE0E0E0F1E0DE0121
:1002E000119601900D928A95E1F760E086E00E94F8
:1002F0009200CE0101960E94A40042E0BE016F5F11
:100300007F4FC8010E94780260E086E00E94920060
:10031000CE0101960E94A40080E191E00E94690252
:10032000CE0101960E94690286E291E00E94690274
:1003300061E081E00E94920089E291E00E94A400C5
:10034000FE0131969E01255F3F4F10E08191813380
:1003500009F41F5FE217F307C9F761E081E00E942B
:10036000920010FD09C089E391E00E94A40089E396
:1003700091E00E94690208C088E491E00E94A40014
:1003800088E491E00E94690286E291E00E9469029D
:100390002A960FB6F894DEBF0FBECDBFDF91CF9186
:1003A000FF91EF91BF91AF919F918F917F916F914D
:1003B0005F914F913F912F911F910F910F900FBE21
:1003C0000F901F9018951F920F920FB60F92112445
:1003D0002F938F939F93EF93FF938091C000209171
:1003E000C6008C71E0915A01EF5FEF739091590153
:1003F000E91739F0E0935A01F0E0E35AFE4F208309
:1004000001C082E090915801892B80935801FF919F
:10041000EF919F918F912F910F900FBE0F901F9092
:1004200018951F920F920FB60F9211248F939F93DE
:10043000EF93FF9390915C0180915B01981769F0B5
:10044000E0915B01EF5FEF73E0935B01F0E0E35657
:10045000FE4F80818093C60005C0E1ECF0E0808112
:100460008F7D8083FF91EF919F918F910F900FBEB1
:100470000F901F90189510925C0110925B011092E2
:100480005A011092590199231CF422E02093C000D4
:1004900090789093C5008093C40088E98093C10050
:1004A00086E08093C200089520915C012F5F2F7336
:1004B00090915B012917E1F3E22FF0E0E356FE4F44
:1004C000808320935C01E1ECF0E080818062808396
:1004D0000895CF93DF93EC018881882331F0219632
:1004E0000E94540289918111FBCFDF91CF91089531
:1004F000BB274A3031F4992322F4BDE290958195CF
:100500009F4F0C948402BB27FB015527AA27880F15
:10051000991FAA1FA41710F0A41B83955051B9F777
:10052000A05DAA3308F0A95DA193009779F7B111F6
:10053000B1931192CB010C949D02DC01FC01672F59
:1005400071917723E1F7329704C07C916D937083AA
:0E0550006291AE17BF07C8F30895F894FFCF6D
:10055E00202020202020202020200076616C3A00D0
:10056E004144432076616C756520696E2062696E28
:10057E006172793A20000D0A0020202020202020D0
:10058E002020202020202020006576656E3A203025
:10059E00206F64643A2031006576656E3A20312012
:0805AE006F64643A2030000084
:00000001FF
