:100000000C9434000C9446000C9446000C9446006A
:100010000C9446000C9446000C9446000C94460048
:100020000C9446000C9446000C9446000C94460038
:100030000C9446000C9446000C9446000C94460028
:100040000C9489000C9446000C94C0000C94EE00B3
:100050000C9446000C9446000C9446000C94460008
:100060000C9446000C94460011241FBECFEFD8E03C
:10007000DEBFCDBF21E0A0E0B1E001C01D92A838F5
:10008000B207E1F70E9454000C9418010C94000090
:10009000FC01408121E030E002C0220F331F6A954D
:1000A000E2F7242B2083089560E08AE290E00E942A
:1000B000480061E08AE290E00E94480062E08AE243
:1000C00090E00E94480063E08AE290E00E944800CD
:1000D00064E08AE290E00E94480065E08AE290E0F5
:1000E0000E94480066E08AE290E00E94480067E0D3
:1000F0008AE290E00E94480085B58B7F85BD85B57A
:10010000836085BDEEE6F0E0808181608083789435
:10011000FFCF1F920F920FB60F9211242F938F9340
:100120009F93809102018BB9809100019091010110
:100130008F3F910509F034F4809102018F5F809325
:1001400002010DC08F3F914034F480910201815033
:100150008093020104C0109201011092000180916D
:10016000000190910101019690930101809300019B
:100170009F918F912F910F900FBE0F901F90189508
:100180001F920F920FB60F9211242F938F939F936C
:10019000EF93FF938091C0002091C6008C71E09195
:1001A0000501EF5FEF7390910401E91739F0E093D7
:1001B0000501F0E0E85FFE4F208301C082E09091EE
:1001C0000301892B80930301FF91EF919F918F9100
:1001D0002F910F900FBE0F901F9018951F920F92A6
:1001E0000FB60F9211248F939F93EF93FF939091EB
:1001F000070180910601981769F0E0910601EF5F11
:10020000EF73E0930601F0E0E85BFE4F808180939E
:10021000C60005C0E1ECF0E080818F7D8083FF9116
:10022000EF919F918F910F900FBE0F901F90189597
:04023000F894FFCF70
:00000001FF
