:100000000C9434000C9451000C9451000C94510049
:100010000C9451000C9451000C9451000C9451001C
:100020000C9451000C9440010C9451000C9451001C
:100030000C9451000C9451000C9451000C945100FC
:100040000C9451000C9451000C9451000C945100EC
:100050000C9451000C9451000C9451000C945100DC
:100060000C9451000C94510011241FBECFEFD8E026
:10007000DEBFCDBF11E0A0E0B1E0ECE6F4E002C0ED
:1000800005900D92A631B107D9F721E0A6E1B1E0C4
:1000900001C01D92AA31B207E1F70E94FA000C9448
:1000A00034020C940000299A85E08A95F1F700004B
:1000B00029980895CF93C82F662311F0289A01C07C
:1000C0002898549A559A569A579A5F985E985D98D0
:1000D0005C98CC230CF45F9AC6FD5E9AC5FD5D9AD0
:1000E000C4FD5C9A0E9453005F985E985D985C988E
:1000F000C3FD5F9AC2FD5E9AC1FD5D9AC0FD5C9A28
:100100000E9453005C9A5D9A5E9A5F9A87EB9BE02F
:100110000197F1F700C00000CF91089560E00E94C0
:100120005A00089561E00E945A000895611104C0C8
:1001300080580E948E00089580540E948E00089579
:1001400081E00E948E00089561E00E945A000895A7
:10015000CF93DF93EC012196FC018081882329F065
:100160000E94A40089918111FBCFDF91CF91089566
:10017000CF93C82F209A559A219A549A559A569AF5
:10018000579A8FEF99EF0197F1F700C000005D9A41
:100190005C9A0E9453008FE19EE40197F1F700C042
:1001A00000000E9453008FEF90E00197F1F700C02C
:1001B00000000E9453008FEF90E00197F1F700C01C
:1001C00000005C980E9453008FEF90E00197F1F7D8
:1001D00000C0000088E20E948E0088E00E948E002D
:1001E0000E94A00086E00E948E008C2F0E948E004C
:1001F000CF9108958CE00E94B8008CE00E94B80076
:1002000080E40E948E00C0E0D1E008E011E0899116
:100210000E949200C017D107D1F780E80E948E009B
:1002200060E08FE00E94960080E00E94A40060E001
:1002300081E00E94960088E091E00E94A80060E0C2
:100240008BE00E94960081E60E94A40061E081E0BC
:100250000E94960082E60E94A40061E08BE00E946A
:10026000960083E60E94A400E1EBF0E080818760C5
:100270008083E0E7F0E08081816080837894FFCF25
:100280001F920F920FB60F9211242F933F934F930B
:100290005F936F937F938F939F93AF93BF93EF93EE
:1002A000FF93CF93DF9300D0CDB7DEB780E290E22B
:1002B0009A838983809119018F5F863018F4809327
:1002C000190188C010921901809118018F5F8A303E
:1002D00018F48093180126C010921801809117011C
:1002E0008F5F8C3318F4809317011CC01092170194
:1002F00060E081E00E94960088E091E00E94A80002
:1003000060E08BE00E94960080E191E00E94A800EE
:10031000809116018F5F8C3318F48093160102C010
:1003200010921601809118014AE0BE016F5F7F4F65
:1003300090E00E94FF0160E087E00E949600CE01FD
:1003400001960E94A800809117014AE0BE016F5FEC
:100350007F4F90E00E94FF01809117018A3028F4BE
:1003600060E085E00E94960004C060E084E00E94A6
:100370009600CE0101960E94A800809116014AE0E5
:10038000BE016F5F7F4F90E00E94FF0180911601D8
:100390008A3028F460E082E00E94960004C060E0A9
:1003A00081E00E949600CE0101960E94A8008091F3
:1003B00017014AE0BE016F5F7F4F889FC001112483
:1003C0000E94FF0160E08BE00E949600CE01019642
:1003D0000E94A8000F900F90DF91CF91FF91EF91B5
:1003E000BF91AF919F918F917F916F915F914F914D
:1003F0003F912F910F900FBE0F901F901895BB2724
:100400004A3031F4992322F4BDE2909581959F4FB3
:100410000C940B02BB27FB015527AA27880F991FB5
:10042000AA1FA41710F0A41B83955051B9F7A05D23
:10043000AA3308F0A95DA193009779F7B111B193A0
:100440001192CB010C942402DC01FC01672F719105
:100450007723E1F7329704C07C916D9370836291AA
:0C046000AE17BF07C8F30895F894FFCF53
:10046C00011F11190404040430303A30302E3000CE
:06047C00202020200000FA
:00000001FF
