S00B00004441432E7372656351
S11300000C9434000C9451000C9451000C94510045
S11300100C9451000C9451000C9451000C94510018
S11300200C9451000C9451000C9451000C94510008
S11300300C9451000C9451000C9451000C945100F8
S11300400C949C010C9451000C942D030C945B03B0
S11300500C9451000C9451000C9451000C945100D8
S11300600C9451000C94510011241FBECFEFD8E022
S1130070DEBFCDBF12E0A0E0B1E0E0E4F7E002C0F3
S113008005900D92A837B107D9F723E0A8E7B2E0AD
S113009001C01D92A330B207E1F70E9406010C943F
S11300A09E030C940000FC01408121E030E002C07A
S11300B0220F331F6A95E2F7242B20830895299A8F
S11300C085E08A95F1F7000029980895CF93C82F09
S11300D0662311F0289A01C028983C9A399A3A9AD2
S11300E03B9A4398429841984498CC230CF4439A01
S11300F0C6FD429AC5FD419AC4FD449A0E945F0020
S11301004398429841984498C3FD439AC2FD429A49
S1130110C1FD419AC0FD449A0E945F00449A419AED
S1130120429A439A87EB9BE00197F1F700C00000E5
S1130130CF91089560E00E946600089561E00E94F6
S113014066000895611104C080580E949A000895C1
S113015080540E949A00089581E00E949A000895B4
S113016061E00E9466000895CF93DF93EC0121962D
S1130170FC018081882329F00E94B00089918111BB
S1130180FBCFDF91CF910895CF93C82F209A3D9A4A
S1130190219A3C9A399A3A9A3B9A8FEF99EF0197B0
S11301A0F1F700C00000419A449A0E945F008FE179
S11301B09EE40197F1F700C000000E945F008FEFFA
S11301C090E00197F1F700C000000E945F008FEFFC
S11301D090E00197F1F700C0000044980E945F008E
S11301E08FEF90E00197F1F700C0000088E20E94D1
S11301F09A0088E00E949A000E94AC0086E00E9467
S11302009A008C2F0E949A00CF91089562E084E2B4
S113021090E00E94530063E084E290E00E94530067
S113022062E08AE290E00E94530063E08AE290E098
S11302300E94530064E08AE290E00E94530065E06B
S11302408AE290E00E94530066E08AE290E00E9415
S1130250530067E08AE290E00E9453008CE00E9421
S1130260C40080E40E949A00C6E0D1E006E211E0F6
S113027089910E949E00C017D107D1F780E80E949F
S11302809A0060E081E00E94A20086E291E00E9470
S1130290B40061E081E00E94A20085E791E00E9441
S11302A0B40080E00E94B00085E391E00E94B400B5
S11302B081E00E94B00089E391E00E94B40082E0F2
S11302C00E94B0008DE391E00E94B40083E00E949C
S11302D0B000ECE7F0E080818064808380818F77D8
S11302E080838081877F808380818B7F80838081EE
S11302F08D7F808380818E7F8083EAE7F0E0808138
S11303008068808380818460808380818260808330
S113031080818160808385B5897F85BD85B5816055
S113032085BDEEE6F0E080818160808387E690E021
S11303300E9485037894FFCF1F920F920FB60F92FD
S113034011242F933F934F935F936F937F938F93D6
S11303509F93AF93BF93EF93FF93EAE7F0E080811D
S11303608064808380917800909179009093050156
S11303708093040180917D028C7F8BB980917D02F2
S11303808370880F880F85B9809103018B30B1F099
S113039080917C02811112C060E00E94A20081E47D
S11303A091E00E94B40061E080E00E94A20082E536
S11303B091E00E94B40081E080937C0260E088E0D8
S11303C00E94A2008091040190910501853091055D
S11303D050F481E08093030181E30E94B00080E047
S11303E00E94B00056C09C012256310929303105C3
S11303F050F482E08093030182E30E94B00081E024
S11304000E94B00046C09C01255B310929303105AA
S113041050F483E08093030183E30E94B00082E000
S11304200E94B00036C09C012B5F31092930310590
S113043050F484E08093030184E30E94B00083E0DD
S11304400E94B00026C09C012B5F31402930310549
S113045020F48AE0809302011CC09C0126513240A2
S11304602930310520F48BE0809303013DC09C01C9
S11304702E5232402930310520F48CE08093020161
S113048008C08A3F934028F080917B028F5F80935D
S11304907B0280910301813079F490917A02E92FF3
S11304A0F0E0E958FE4F208120937D022091010164
S11304B0920F90937A0238C08230B1F4209178027E
S11304C0309179022230310524F49FEF90937D021C
S11304D038C0243031051CF410927D0232C01092D1
S11304E07902109278022DC08330F1F420917802C1
S11304F0309179022F3F310509F034F490917D0257
S11305009F5F90937D0289C02F3F314034F49091D6
S11305107D02915090937D0280C0109279021092D6
S1130520780210927D0279C0843059F490917D0252
S11305309F5F90937D02909102019A3009F048C028
S113054071C0909102019A3069F4809302019091F4
S1130550000120910101921305C0923018F09150CE
S1130560909300018B30A1F560E080E00E94A2002E
S113057083E691E00E94B40061E080E00E94A20062
S113058084E791E00E94B40080E00E94B00085E31B
S113059091E00E94B40081E00E94B00089E391E000
S11305A00E94B40082E00E94B0008DE391E00E94BA
S11305B0B40083E00E94B00080E20E94B000109278
S11305C07D0210927C0281E08093000180930101FE
S11305D0809102018C3069F48091030180930201BF
S11305E08091000190910101891303C08F5F809372
S11305F0000180917B02843630F080910001809369
S1130600010110927B028091780290917902019607
S113061090937902809378020FC0909102019A30EE
S1130620B9F693CF94E09093020190910001209148
S113063001019213CDCF91CFFF91EF91BF91AF9173
S11306409F918F917F916F915F914F913F912F91E6
S11306500F900FBE0F901F9018951F920F920FB618
S11306600F9211242F938F939F93EF93FF93809175
S1130670C0002091C6008C71E0918002EF5FEF739F
S113068090917F02E91739F0E0938002F0E0ED5792
S1130690FD4F208301C082E090917E02892B8093DC
S11306A07E02FF91EF919F918F912F910F900FBE3A
S11306B00F901F9018951F920F920FB60F9211244E
S11306C08F939F93EF93FF93909182028091810285
S11306D0981769F0E0918102EF5FEF73E093810274
S11306E0F0E0ED53FD4F80818093C60005C0E1EC3E
S11306F0F0E080818F7D8083FF91EF919F918F91B6
S11307000F900FBE0F901F901895109282021092B6
S113071081021092800210927F0299231CF422E03D
S11307202093C00090789093C5008093C40088E91A
S11307308093C10086E08093C2000895F894FFCFAF
S113074001010B0BE8030008141405050200000066
S11307500E0A0A1B00000000040A11000000000138
S113076003050911000043686F6F7365207369679F
S11307706E616C3A002020320020203300202034A7
S113078000507265737365643A202020457869745B
S113079030002A662D2D2023662B2B20202020209C
S11307A0487A002043686F6F7365207369676E61D0
S11307B06C3A2000203100808386898C909396992E
S11307C09C9FA2A5A8ABAEB1B3B6B9BCBFC1C4C708
S11307D0C9CCCED1D3D5D8DADCDEE0E2E4E6E8EA6F
S11307E0EBEDEFF0F1F3F4F5F6F8F9FAFAFBFCFDB2
S11307F0FDFEFEFEFFFFFFFFFFFFFFFEFEFEFDFD11
S1130800FCFBFAFAF9F8F6F5F4F3F1F0EFEDEBEAA4
S1130810E8E6E4E2E0DEDCDAD8D5D3D1CECCC9C751
S1130820C4C1BFBCB9B6B3B1AEABA8A5A29F9C99D5
S11308309693908C898683807D7A7774706D6A67CD
S113084064615E5B5855524F4D4A4744413F3C39C1
S11308503734322F2D2B28262422201E1C1A18163A
S1130860151311100F0D0C0B0A08070606050403D7
S11308700302020201010101010101020202030358
S11308800405060607080A0B0C0D0F1011131516A4
S1130890181A1C1E20222426282B2D2F32343739D7
S11308A03C3F4144474A4D4F5255585B5E61646733
S10B08B06A6D7074777A7D0013
S9030000FC
