S00B00004441432E7372656351
S11300000C9434000C9451000C9451000C94510045
S11300100C9451000C9451000C9451000C94510018
S11300200C9451000C9451000C9451000C94510008
S11300300C9451000C9451000C9451000C945100F8
S11300400C949C010C9451000C9428020C945602BC
S11300500C9451000C9451000C9451000C945100D8
S11300600C9451000C94510011241FBECFEFD8E022
S1130070DEBFCDBF12E0A0E0B1E0E6E3F5E002C0F0
S113008005900D92AE33B107D9F722E0AEE3B2E0AA
S113009001C01D92A93CB207E1F70E9406010C942D
S11300A099020C940000FC01408121E030E002C080
S11300B0220F331F6A95E2F7242B20830895299A8F
S11300C085E08A95F1F7000029980895CF93C82F09
S11300D0662311F0289A01C028983C9A399A3A9AD2
S11300E03B9A4398429841984498CC230CF4439A01
S11300F0C6FD429AC5FD419AC4FD449A0E945F0020
S11301004398429841984498C3FD439AC2FD429A49
S1130110C1FD419AC0FD449A0E945F00449A419AED
S1130120429A439A87EB9BE00197F1F700C00000E5
S1130130CF91089560E00E946600089561E00E94F6
S113014066000895611104C080580E949A000895C1
S113015080540E949A00089581E00E949A000895B4
S113016061E00E9466000895CF93DF93EC0121962D
S1130170FC018081882329F00E94B00089918111BB
S1130180FBCFDF91CF910895CF93C82F209A3D9A4A
S1130190219A3C9A399A3A9A3B9A8FEF99EF0197B0
S11301A0F1F700C00000419A449A0E945F008FE179
S11301B09EE40197F1F700C000000E945F008FEFFA
S11301C090E00197F1F700C000000E945F008FEFFC
S11301D090E00197F1F700C0000044980E945F008E
S11301E08FEF90E00197F1F700C0000088E20E94D1
S11301F09A0088E00E949A000E94AC0086E00E9467
S11302009A008C2F0E949A00CF91089562E084E2B4
S113021090E00E94530063E084E290E00E94530067
S113022062E08AE290E00E94530063E08AE290E098
S11302300E94530064E08AE290E00E94530065E06B
S11302408AE290E00E94530066E08AE290E00E9415
S1130250530067E08AE290E00E9453008CE00E9421
S1130260C40080E40E949A00C0E0D1E000E211E002
S113027089910E949E00C017D107D1F780E80E949F
S11302809A0060E081E00E94A20081E291E00E9475
S1130290B40061E081E00E94A20080E391E00E944A
S11302A0B40080E00E94B00082E391E00E94B400B8
S11302B081E00E94B00086E391E00E94B40082E0F5
S11302C00E94B0008AE391E00E94B40083E00E949F
S11302D0B000ECE7F0E080818064808380818F77D8
S11302E080838081877F808380818B7F80838081EE
S11302F08D7F808380818E7F8083EAE7F0E0808138
S11303008068808380818460808380818260808330
S113031080818160808385B5897F85BD85B5816055
S113032085BDEEE6F0E080818160808387E690E021
S11303300E9480027894FFCF1F920F920FB60F9203
S113034011242F938F939F93EF93FF9381E08093D6
S11303502001EAE7F0E08081806480838091780066
S113036090917900909343028093420280914102DC
S11303708C7F8BB9809141028370880F880F85B977
S113038080912001813061F480914002E82FF0E0F7
S1130390E25CFE4F9081909341028F5F8093400214
S11303A0809120018230C9F480913E0290913F02F5
S11303B08230910524F48FEF809341020EC004979C
S11303C01CF41092410209C010923F0210923E02A6
S11303D080912001833001F50CC08091200183308D
S11303E0D9F480913E0290913F028F3F910509F02C
S11303F034F4809141028F5F809341020DC08F3F9E
S1130400914034F48091410281508093410204C0B0
S113041010923F0210923E0280912001843029F410
S1130420809141028F5F8093410280913E029091BE
S11304303F02019690933F0280933E02FF91EF9119
S11304409F918F912F910F900FBE0F901F90189531
S11304501F920F920FB60F9211242F938F939F9395
S1130460EF93FF938091C0002091C6008C71E091BE
S11304704602EF5FEF7390914502E91739F0E0937C
S11304804602F0E0E75BFD4F208301C082E09091DB
S11304904402892B80934402FF91EF919F918F91A5
S11304A02F910F900FBE0F901F9018951F920F92CF
S11304B00FB60F9211248F939F93EF93FF93909114
S11304C0480280914702981769F0E0914702EF5F74
S11304D0EF73E0934702F0E0E757FD4F808180938C
S11304E0C60005C0E1ECF0E080818F7D8083FF9140
S11304F0EF919F918F910F900FBE0F901F901895C1
S1130500109248021092470210924602109245023D
S113051099231CF422E02093C00090789093C500A6
S11305208093C40088E98093C10086E08093C20070
S10905300895F894FFCFCA
S1130536000814140505020000000E0A0A1B000038
S11305460000040A1100000000010305091100005F
S11305560D43686F6F7365207369676E616C3A004B
S113056631002020320020203300202034008083F4
S113057686898C909396999C9FA2A5A8ABAEB1B39D
S1130586B6B9BCBFC1C4C7C9CCCED1D3D5D8DADCC1
S1130596DEE0E2E4E6E8EAEBEDEFF0F1F3F4F5F69B
S11305A6F8F9FAFAFBFCFDFDFEFEFEFFFFFFFFFF76
S11305B6FFFFFEFEFEFDFDFCFBFAFAF9F8F6F5F484
S11305C6F3F1F0EFEDEBEAE8E6E4E2E0DEDCDAD8BC
S11305D6D5D3D1CECCC9C7C4C1BFBCB9B6B3B1AEED
S11305E6ABA8A5A29F9C999693908C898683807DBF
S11305F67A7774706D6A6764615E5B5855524F4DC5
S11306064A4744413F3C393734322F2D2B28262480
S113061622201E1C1A1816151311100F0D0C0B0A86
S1130626080706060504030302020201010101018B
S1130636010102020203030405060607080A0B0C5D
S11306460D0F1011131516181A1C1E202224262805
S11306562B2D2F323437393C3F4144474A4D4F52B4
S111066655585B5E6164676A6D7074777A7DC7
S9030000FC
