S00B00004441432E7372656351
S11300000C9434000C9451000C9451000C94510045
S11300100C9451000C9451000C9451000C94510018
S11300200C9451000C9451000C9451000C94510008
S11300300C9451000C9451000C9451000C945100F8
S11300400C949C010C9451000C947F030C94AD030C
S11300500C9451000C9451000C9451000C945100D8
S11300600C9451000C94510011241FBECFEFD8E022
S1130070DEBFCDBF12E0A0E0B1E0E4EEF7E002C0E5
S113008005900D92A837B107D9F723E0A8E7B2E0AD
S113009001C01D92A530B207E1F70E9406010C943D
S11300A0F0030C940000FC01408121E030E002C028
S11300B0220F331F6A95E2F7242B20830895299A8F
S11300C085E08A95F1F7000029980895CF93C82F09
S11300D0662311F0289A01C028983C9A399A3A9AD2
S11300E03B9A4398429841984498CC230CF4439A01
S11300F0C6FD429AC5FD419AC4FD449A0E945F0020
S11301004398429841984498C3FD439AC2FD429A49
S1130110C1FD419AC0FD449A0E945F00449A419AED
S1130120429A439A87EB9BE00197F1F700C00000E5
S1130130CF91089560E00E946600089561E00E94F6
S113014066000895611104C080580E949A000895C1
S113015080540E949A00089581E00E949A000895B4
S113016061E00E9466000895CF93DF93EC0121962D
S1130170FC018081882329F00E94B00089918111BB
S1130180FBCFDF91CF910895CF93C82F209A3D9A4A
S1130190219A3C9A399A3A9A3B9A8FEF99EF0197B0
S11301A0F1F700C00000419A449A0E945F008FE179
S11301B09EE40197F1F700C000000E945F008FEFFA
S11301C090E00197F1F700C000000E945F008FEFFC
S11301D090E00197F1F700C0000044980E945F008E
S11301E08FEF90E00197F1F700C0000088E20E94D1
S11301F09A0088E00E949A000E94AC0086E00E9467
S11302009A008C2F0E949A00CF91089562E084E2B4
S113021090E00E94530063E084E290E00E94530067
S113022062E08AE290E00E94530063E08AE290E098
S11302300E94530064E08AE290E00E94530065E06B
S11302408AE290E00E94530066E08AE290E00E9415
S1130250530067E08AE290E00E9453008CE00E9421
S1130260C40080E40E949A00C4E0D1E004E211E0FA
S113027089910E949E00C017D107D1F780E80E949F
S11302809A0060E081E00E94A20086E291E00E9470
S1130290B40061E081E00E94A20085E791E00E9441
S11302A0B40080E00E94B00085E391E00E94B400B5
S11302B081E00E94B00089E391E00E94B40082E0F2
S11302C00E94B0008DE391E00E94B40083E00E949C
S11302D0B000ECE7F0E080818064808380818F77D8
S11302E080838081877F808380818B7F80838081EE
S11302F08D7F808380818E7F8083EAE7F0E0808138
S11303008068808380818460808380818260808330
S113031080818160808385B5897F85BD85B5816055
S113032085BDEEE6F0E080818160808387E690E021
S11303300E94D7037894FFCF1F920F920FB60F92AB
S113034011242F933F934F935F936F937F938F93D6
S11303509F93AF93BF93EF93FF93EAE7F0E080811D
S11303608064808380917800909179009093250136
S11303708093240180917F028C7F8BB980917F02CE
S11303808370880F880F85B9809103018B30B1F099
S113039080917E02811112C060E00E94A20081E47B
S11303A091E00E94B40061E080E00E94A20082E536
S11303B091E00E94B40081E080937E0260E088E0D6
S11303C00E94A2008091240190912501059750F488
S11303D081E08093030181E30E94B00080E00E94E9
S11303E0B0008AC080912401909125018236910544
S11303F088F080912401909125018B36910550F469
S113040082E08093030182E30E94B00081E00E94B5
S1130410B00072C08091240190912501853B910523
S113042088F080912401909125018E3B910550F430
S113043083E08093030183E30E94B00082E00E9482
S1130440B0005AC080912401909125018B3F910501
S113045088F080912401909125018430914050F4DA
S113046084E08093030184E30E94B00083E00E944F
S1130470B00042C080912401909125018B3F9140AE
S113048058F080912401909125018430924020F409
S11304908AE08093020130C080912401909125016B
S11304A08631924058F080912401909125018F313A
S11304B0924020F48BE0809303014AC08091240190
S11304C0909125018E32924058F0809124019091B0
S11304D025018733924020F48CE0809302010CC004
S11304E080912401909125018A3F934028F08091C6
S11304F07D028F5F80937D0280910301813079F4C6
S113050090917C02E92FF0E0E958FE4F208120937E
S11305107F0220910101920F90937C023FC08230B0
S1130520B9F420917A0230917B022038310524F409
S11305309FEF90937F0241C02F3F310509F01CF4D7
S113054010927F023AC010927B0210927A0235C058
S1130550833021F520917A0230917B022F3F3105BF
S113056009F044F420917F0290910101920F90933D
S11305707F02A5C02F3F314054F490917F0299230C
S113058031F020910101921B90937F0298C0109248
S11305907B0210927A0210927F0291C0843069F437
S11305A020917F0290910101920F90937F0290918C
S11305B002019A3009F048C087C0909102019A3034
S11305C069F480930201909100012091010192133A
S11305D005C0923018F09150909300018B30A1F532
S11305E060E080E00E94A20083E691E00E94B400F3
S11305F061E080E00E94A20084E791E00E94B400E0
S113060080E00E94B00085E391E00E94B40081E0A4
S11306100E94B00089E391E00E94B40082E00E944D
S1130620B0008DE391E00E94B40083E00E94B0002A
S113063080E20E94B00010927F0210927E0281E05C
S11306408093000180930101809102018C3069F450
S11306508091030180930201809100019091010136
S1130660891303C08F5F8093000180917D028436DB
S113067030F0809100018093010110927D028091FD
S11306807802909179020A9721F4109279021092DB
S11306907802809178029091790201969093790280
S11306A0809378022091010180917A0290917B02DB
S11306B0820F911D90937B0280937A020FC09091D8
S11306C002019A3009F67DCF94E090930201909153
S11306D00001209101019213B7CF7BCFFF91EF91DD
S11306E0BF91AF919F918F917F916F915F914F9146
S11306F03F912F910F900FBE0F901F9018951F924E
S11307000F920FB60F9211242F938F939F93EF9311
S1130710FF938091C0002091C6008C71E091820209
S1130720EF5FEF7390918102E91739F0E093820251
S1130730F0E0EB57FD4F208301C082E090918002EE
S1130740892B80938002FF91EF919F918F912F913C
S11307500F900FBE0F901F9018951F920F920FB617
S11307600F9211248F939F93EF93FF9390918402A0
S113077080918302981769F0E0918302EF5FEF7331
S1130780E0938302F0E0EB53FD4F80818093C60039
S113079005C0E1ECF0E080818F7D8083FF91EF91D3
S11307A09F918F910F900FBE0F901F9018951092EC
S11307B08402109283021092820210928102992381
S11307C01CF422E02093C00090789093C50080939D
S11307D0C40088E98093C10086E08093C200089534
S10707E0F894FFCFB7
S11307E401010B0B000814140505020000000E0A95
S11307F40A1B00000000040A1100000000010305A4
S113080409110000E80343686F6F73652073696717
S11308146E616C3A00202032002020330020203402
S113082400507265737365643A20202045786974B6
S113083430002A662D2D2023662B2B2020202020F7
S1130844487A002043686F6F7365207369676E612B
S11308546C3A2000203100808386898C9093969989
S11308649C9FA2A5A8ABAEB1B3B6B9BCBFC1C4C763
S1130874C9CCCED1D3D5D8DADCDEE0E2E4E6E8EACA
S1130884EBEDEFF0F1F3F4F5F6F8F9FAFAFBFCFD0D
S1130894FDFEFEFEFFFFFFFFFFFFFFFEFEFEFDFD6C
S11308A4FCFBFAFAF9F8F6F5F4F3F1F0EFEDEBEA00
S11308B4E8E6E4E2E0DEDCDAD8D5D3D1CECCC9C7AD
S11308C4C4C1BFBCB9B6B3B1AEABA8A5A29F9C9931
S11308D49693908C898683807D7A7774706D6A6729
S11308E464615E5B5855524F4D4A4744413F3C391D
S11308F43734322F2D2B28262422201E1C1A181696
S1130904151311100F0D0C0B0A0807060605040332
S113091403020202010101010101010202020303B3
S11309240405060607080A0B0C0D0F1011131516FF
S1130934181A1C1E20222426282B2D2F3234373932
S11309443C3F4144474A4D4F5255585B5E6164678E
S10B09546A6D7074777A7D006E
S9030000FC
