S00B00004441432E7372656351
S11300000C9434000C9451000C9451000C94510045
S11300100C9451000C9451000C9451000C94510018
S11300200C9451000C9451000C9451000C94510008
S11300300C9451000C943F020C9451000C94510008
S11300400C94AC010C9451000C9495050C94C305CC
S11300500C9451000C9454020C9451000C945100D3
S11300600C9451000C94510011241FBECFEFD8E022
S1130070DEBFCDBF12E0A0E0B1E0E2ECFCE002C0E4
S113008005900D92A43BB107D9F723E0A4EBB2E0AD
S113009001C01D92A134B207E1F70E9406010C943D
S11300A05F060C940000FC01408121E030E002C0B6
S11300B0220F331F6A95E2F7242B20830895299A8F
S11300C085E08A95F1F7000029980895CF93C82F09
S11300D0662311F0289A01C028983C9A399A3A9AD2
S11300E03B9A4398429841984498CC230CF4439A01
S11300F0C6FD429AC5FD419AC4FD449A0E945F0020
S11301004398429841984498C3FD439AC2FD429A49
S1130110C1FD419AC0FD449A0E945F00449A419AED
S1130120429A439A87EB9BE00197F1F700C00000E5
S1130130CF91089560E00E946600089561E00E94F6
S113014066000895611104C080580E949A000895C1
S113015080540E949A00089581E00E949A000895B4
S113016061E00E9466000895CF93DF93EC0121962D
S1130170FC018081882329F00E94B00089918111BB
S1130180FBCFDF91CF910895CF93C82F209A3D9A4A
S1130190219A3C9A399A3A9A3B9A8FEF99EF0197B0
S11301A0F1F700C00000419A449A0E945F008FE179
S11301B09EE40197F1F700C000000E945F008FEFFA
S11301C090E00197F1F700C000000E945F008FEFFC
S11301D090E00197F1F700C0000044980E945F008E
S11301E08FEF90E00197F1F700C0000088E20E94D1
S11301F09A0088E00E949A000E94AC0086E00E9467
S11302009A008C2F0E949A00CF91089562E084E2B4
S113021090E00E94530063E084E290E00E94530067
S113022062E08AE290E00E94530063E08AE290E098
S11302300E94530064E08AE290E00E94530065E06B
S11302408AE290E00E94530066E08AE290E00E9415
S1130250530067E08AE290E00E9453008CE00E9421
S1130260C40080E40E949A00C2E0D1E002E211E0FE
S113027089910E949E00C017D107D1F780E80E949F
S11302809A0060E081E00E94A20088E291E00E946E
S1130290B40061E081E00E94A20082EB91E00E9440
S11302A0B40080E00E94B00087E391E00E94B400B3
S11302B081E00E94B0008BE391E00E94B40082E0F0
S11302C00E94B0008FE391E00E94B40083E00E949A
S11302D0B000ECE7F0E080818064808380818F77D8
S11302E080838081877F808380818B7F80838081EE
S11302F08D7F808380818E7F8083EAE7F0E0808138
S1130300806880838081886080838081846080832A
S113031080818260808380818160808385B5897FCC
S113032085BD85B5816085BDEEE6F0E080818160A4
S11303308083E1E8F0E08081897F8083808181602F
S11303408083EFE6F0E080818160808387E690E03F
S11303500E94ED057894FFCF1F920F920FB60F9273
S113036011242F938F939F93EF93FF938091BA025D
S11303708C7F8BB98091BA028370880F880F85B9FE
S113038080912501813071F49091B802E92FF0E059
S1130390EC54FE4F80818093BA0280912301890F2F
S11303A08093B802809125018230B9F48091B6021D
S11303B09091B7028038910524F48FEF8093BA02AC
S11303C00CC08F3F910509F01CF41092BA0248C08A
S11303D01092B7021092B60243C080912501833077
S11303E039F58091B6029091B7028F3F910509F0DB
S11303F054F48091BA02909123018091BA02890F3A
S11304008093BA0215C08F3F914064F48091BA0280
S1130410882341F0909123018091BA02891B809333
S1130420BA0206C01092B7021092B6021092BA0233
S113043080912501843039F4909123018091BA028E
S1130440890F8093BA02209123018091B602909182
S1130450B702820F911D9093B7028093B60205C034
S113046080912501833021F7C4CFFF91EF919F91B3
S11304708F912F910F900FBE0F901F9018951F9280
S11304800F920FB60F9211248F93EF93FF93EAE725
S1130490F0E0808180648083FF91EF918F910F90D1
S11304A00FBE0F901F9018951F920F920FB60F92C8
S11304B011242F933F934F935F936F937F938F9365
S11304C09F93AF93BF93EF93FF93CF93DF93CDB7F6
S11304D0DEB72A97DEBFCDBF809178009091790076
S11304E090932701809326012091260130912701C2
S11304F08091B4029091B5022817390709F467C2B4
S113050080912601909127019093B5028093B402C3
S11305108091260190912701059708F051C081E050
S11305208093250160E088E00E94A20081E30E949C
S1130530B00080E00E94B00083E491E00E941B06BA
S113054080912501833039F489E790E0909301018B
S11305508093000106C084EF90E0909301018093A2
S113056000012091230180910001909101014AE052
S1130570BE016F5F7F4FFC012E9FC0012F9F900D26
S113058011240E942A0688E491E00E941B06CE01F1
S113059001960E941B068CE991E00E941B0661E013
S11305A08AE00E94A2008EE491E00E94B40061E01F
S11305B08AE00E94A200CE0101960E94B40007C204
S11305C080912601909127018236910508F459C043
S11305D080912601909127018B36910508F051C036
S11305E082E08093250160E088E00E94A20082E31B
S11305F00E94B00081E00E94B00083E591E00E9477
S11306001B0680912501833039F489E790E09093AB
S113061001018093000106C084EF90E090930101F2
S113062080930001209123018091000190910101A8
S11306304AE0BE016F5F7F4FFC012E9FC0012F9FD8
S1130640900D11240E942A0688E491E00E941B0662
S1130650CE0101960E941B068CE991E00E941B06C4
S113066061E08AE00E94A2008EE491E00E94B4005E
S113067061E08AE00E94A200CE0101960E94B400CB
S1130680A6C18091260190912701853B910508F42C
S113069059C080912601909127018E3B910508F065
S11306A051C083E08093250160E088E00E94A200AD
S11306B083E30E94B00082E00E94B0008AE591E0EA
S11306C00E941B0680912501833039F489E790E06C
S11306D0909301018093000106C084EF90E0909311
S11306E001018093000120912301809100019091E8
S11306F001014AE0BE016F5F7F4FFC012E9FC001E4
S11307002F9F900D11240E942A0688E491E00E94F4
S11307101B06CE0101960E941B068CE991E00E9403
S11307201B0661E08AE00E94A2008EE491E00E9430
S1130730B40061E08AE00E94A200CE0101960E940A
S1130740B40045C180912601909127018B3F91050A
S113075008F459C08091260190912701843091407A
S113076008F051C084E08093250160E088E00E9495
S1130770A20084E30E94B00083E00E94B00083E6FC
S113078091E00E941B0680912501833039F489E7AA
S113079090E0909301018093000106C084EF90E003
S11307A09093010180930001209123018091000125
S11307B0909101014AE0BE016F5F7F4FFC012E9FC3
S11307C0C0012F9F900D11240E942A0688E491E015
S11307D00E941B06CE0101960E941B068CE991E043
S11307E00E941B0661E08AE00E94A2008EE491E070
S11307F00E94B40061E08AE00E94A200CE0101964A
S11308000E94B400E4C080912601909127018B3F9F
S1130810914008F45CC080912601909127018430B6
S1130820924008F054C080912301823008F44FC0F4
S11308308AE08093240188E691E00E941B068CE6FE
S113084091E00E941B0680912501833039F489E7E9
S113085090E0909301018093000106C084EF90E042
S113086090930101809300018091230190E001970E
S113087020910001309101014AE0BE016F5F7F4F7A
S1130880FC01E29FC001E39F900DF29F900D1124A3
S11308900E942A0689E491E00E941B06CE0101967B
S11308A00E941B068CE991E00E941B0661E08AE02D
S11308B00E94A2008EE491E00E94B40061E08AE00C
S11308C00E94A200CE0101960E94B40080C08091D3
S11308D02601909127018631924078F0809126017B
S11308E0909127018F31924040F48BE08093250151
S11308F08FE691E00E941B066AC0809126019091C8
S113090027018E32924008F457C0809126019091BD
S113091027018733924008F04FC08CE08093240174
S11309208AE791E00E941B068CE691E00E941B0678
S113093080912501833039F489E790E09093010197
S11309408093000106C084EF90E0909301018093AE
S113095000018091230190E00196209100013091E3
S113096001014AE0BE016F5F7F4FFC01E29FC001BD
S1130970E39F900DF29F900D11240E942A0689E4B2
S113098091E00E941B06CE0101960E941B068CE991
S113099091E00E941B0661E08AE00E94A2008EE4BE
S11309A091E00E94B40061E08AE00E94A200CE01BE
S11309B001960E94B4000BC08091260190912701FA
S11309C08A3F934020F08CE691E00E941B068091C0
S11309D02601909127018A3F934028F08091BB0221
S11309E08F5F8093BB02809125018B30B1F08091A1
S11309F0B902811112C060E00E94A2008EE791E06A
S1130A000E94B40061E080E00E94A2008FE891E0BF
S1130A100E94B40081E08093B902809124018A305D
S1130A20A9F4809125018093240190912201809161
S1130A302301981357C080912301823008F452C0D7
S1130A40809123018150809322014CC08091250123
S1130A508B30A9F560E080E00E94A20080EA91E07A
S1130A600E94B40061E080E00E94A20081EB91E06A
S1130A700E94B40080E00E94B00087E391E00E94ED
S1130A80B40081E00E94B0008BE391E00E94B400C6
S1130A9082E00E94B0008FE391E00E94B40083E002
S1130AA00E94B00080E20E94B0001092BA0210923C
S1130AB0B90281E0809322018093230113C08091C5
S1130AC024018C3079F48091250180932401909144
S1130AD0220180912301981305C0809123018F5F27
S1130AE0809322018091BB028A3030F080912201F0
S1130AF0809323011092BB022A960FB6F894DEBFAE
S1130B000FBECDBFDF91CF91FF91EF91BF91AF9118
S1130B109F918F917F916F915F914F913F912F9111
S1130B200F900FBE0F901F9018951F920F920FB643
S1130B300F9211242F938F939F93EF93FF938091A0
S1130B40C0002091C6008C71E091BE02EF5FEF738C
S1130B509091BD02E91739F0E093BE02F0E0EF5343
S1130B60FD4F208301C082E09091BC02892B8093C9
S1130B70BC02FF91EF919F918F912F910F900FBE27
S1130B800F901F9018951F920F920FB60F92112479
S1130B908F939F93EF93FF939091C0028091BF0234
S1130BA0981769F0E091BF02EF5FEF73E093BF0223
S1130BB0F0E0EF5FFC4F80818093C60005C0E1EC5C
S1130BC0F0E080818F7D8083FF91EF919F918F91E1
S1130BD00F900FBE0F901F9018951092C0021092A4
S1130BE0BF021092BE021092BD0299231CF422E0AF
S1130BF02093C00090789093C5008093C40088E946
S1130C008093C10086E08093C20008952091C002C1
S1130C102F5F2F739091BF022917E1F3E22FF0E0C9
S1130C20EF5FFC4F80832093C002E1ECF0E0808111
S1130C30806280830895CF93DF93EC0188818823B9
S1130C4031F021960E94060689918111FBCFDF9134
S1130C50CF910895BB274A3031F4992322F4BDE2A1
S1130C60909581959F4F0C943606BB27FB01552721
S1130C70AA27880F991FAA1FA41710F0A41B8395F5
S1130C805051B9F7A05DAA3308F0A95DA19300976C
S1130C9079F7B111B1931192CB010C944F06DC0199
S1130CA0FC01672F71917723E1F7329704C07C919F
S1130CB06D9370836291AE17BF07C8F30895F894DB
S1050CC0FFCF60
S1130CC2F400000814140505020000000E0A0A1BB1
S1130CD200000000040A11000000000103050911CC
S1130CE2000001010B0BE80343686F6F7365207307
S1130CF269676E616C3A00202032002020330020A4
S1130D0220340053696E65002066203D20002020B7
S1130D1220200053717561726500547269616E67B7
S1130D226C650052616D7000662D2D000D0A004F36
S1130D327574707574206F666600662B2B00507292
S1130D4265737365643A2020204578697430002AFB
S1130D52662D2D2023662B2B2020202020487A006C
S1130D622043686F6F7365207369676E616C3A2004
S1130D7200203100808386898C909396999C9FA24F
S1130D82A5A8ABAEB1B3B6B9BCBFC1C4C7C9CCCEBA
S1130D92D1D3D5D8DADCDEE0E2E4E6E8EAEBEDEF43
S1130DA2F0F1F3F4F5F6F8F9FAFAFBFCFDFDFEFEB8
S1130DB2FEFFFFFFFFFFFFFFFEFEFEFDFDFCFBFA51
S1130DC2FAF9F8F6F5F4F3F1F0EFEDEBEAE8E6E41C
S1130DD2E2E0DEDCDAD8D5D3D1CECCC9C7C4C1BFF8
S1130DE2BCB9B6B3B1AEABA8A5A29F9C9996939099
S1130DF28C898683807D7A7774706D6A6764615E9C
S1130E025B5855524F4D4A4744413F3C393734327F
S1130E122F2D2B28262422201E1C1A1816151311D6
S1130E22100F0D0C0B0A0807060605040303020241
S1130E320201010101010101020202030304050688
S1130E420607080A0B0C0D0F1011131516181A1C9D
S1130E521E20222426282B2D2F323437393C3F41A1
S1130E6244474A4D4F5255585B5E6164676A6D70E0
S1070E7274777A7D96
S9030000FC
