S00B00004441432E7372656351
S11300000C9434000C9451000C9451000C94510045
S11300100C9451000C9451000C9451000C94510018
S11300200C9451000C9451000C9451000C94510008
S11300300C9451000C9420020C9451000C94510027
S11300400C94AC010C9451000C9438030C9466038A
S11300500C9451000C9435020C9451000C945100F2
S11300600C9451000C94510011241FBECFEFD8E022
S1130070DEBFCDBF12E0A0E0B1E0E8E0F8E002C0EE
S113008005900D92A836B107D9F722E0A8E6B2E0B0
S113009001C01D92A13FB207E1F70E9406010C9432
S11300A002040C940000FC01408121E030E002C015
S11300B0220F331F6A95E2F7242B20830895299A8F
S11300C085E08A95F1F7000029980895CF93C82F09
S11300D0662311F0289A01C028983C9A399A3A9AD2
S11300E03B9A4398429841984498CC230CF4439A01
S11300F0C6FD429AC5FD419AC4FD449A0E945F0020
S11301004398429841984498C3FD439AC2FD429A49
S1130110C1FD419AC0FD449A0E945F00449A419AED
S1130120429A439A87EB9BE00197F1F700C00000E5
S1130130CF91089560E00E946600089561E00E94F6
S113014066000895611104C080580E949A000895C1
S113015080540E949A00089581E00E949A000895B4
S113016061E00E9466000895CF93DF93EC0121962D
S1130170FC018081882329F00E94B00089918111BB
S1130180FBCFDF91CF910895CF93C82F209A3D9A4A
S1130190219A3C9A399A3A9A3B9A8FEF99EF0197B0
S11301A0F1F700C00000419A449A0E945F008FE179
S11301B09EE40197F1F700C000000E945F008FEFFA
S11301C090E00197F1F700C000000E945F008FEFFC
S11301D090E00197F1F700C0000044980E945F008E
S11301E08FEF90E00197F1F700C0000088E20E94D1
S11301F09A0088E00E949A000E94AC0086E00E9467
S11302009A008C2F0E949A00CF91089562E084E2B4
S113021090E00E94530063E084E290E00E94530067
S113022062E08AE290E00E94530063E08AE290E098
S11302300E94530064E08AE290E00E94530065E06B
S11302408AE290E00E94530066E08AE290E00E9415
S1130250530067E08AE290E00E9453008CE00E9421
S1130260C40080E40E949A00C0E0D1E000E211E002
S113027089910E949E00C017D107D1F780E80E949F
S11302809A0060E081E00E94A2008CE291E00E946A
S1130290B40061E081E00E94A2008BE391E00E943F
S11302A0B40080E00E94B0008DE391E00E94B400AD
S11302B081E00E94B00081E491E00E94B40082E0F9
S11302C00E94B00085E491E00E94B40083E00E94A3
S11302D0B000ECE7F0E080818064808380818F77D8
S11302E080838081877F808380818B7F80838081EE
S11302F08D7F808380818E7F8083EAE7F0E0808138
S1130300806880838081886080838081846080832A
S113031080818260808380818160808385B5897FCC
S113032085BD85B5816085BDEEE6F0E080818160A4
S11303308083E1E8F0E080818A7F8083808182602D
S11303408083EFE6F0E080818160808387E690E03F
S11303500E9490037894FFCF1F920F920FB60F92D2
S113036011242F938F939F93EF93FF9380916B02AC
S11303708C7F8BB980916B028370880F880F85B94D
S113038080912001813069F490916A02E92FF0E0B4
S1130390E859FE4F208120936B029F5F90936A027D
S11303A035C08230A9F4809168029091690282304C
S11303B0910524F48FEF80936B022FC004971CF4F3
S11303C010926B022AC0109269021092680225C032
S11303D08330E1F480916802909169028F3F910526
S11303E009F034F480916B028F5F80936B0215C027
S11303F08F3F914034F480916B02815080936B0263
S11304000CC0109269021092680207C0843029F46B
S113041080916B028F5F80936B0280916802909150
S1130420690201969093690280936802FF91EF91AB
S11304309F918F912F910F900FBE0F901F90189541
S11304401F920F920FB60F9211248F93EF93FF9385
S1130450EAE7F0E0808180648083FF91EF918F91DF
S11304600F900FBE0F901F9018951F920F920FB60A
S11304700F9211240F931F932F933F934F935F93E6
S11304806F937F938F939F93AF93BF93EF93FF9358
S1130490CF93DF93CDB7DEB72A97DEBFCDBF0091F0
S11304A07800109179008AE0E1E2F1E0DE01119632
S11304B001900D928A95E1F74AE0BE016F5F7F4F8C
S11304C0C8010E94CD0389E491E00E94BE03CE01DD
S11304D001960E94BE0385E591E00E94BE03093F98
S11304E083E0180740F460E080E00E94A20088E501
S11304F091E00E94B40060E089E00E94A2000A3FFB
S113050083E0180708F099C00530110550F481E321
S11305100E94B00080E00E94B00081E0809320013E
S11305208CC0C80182569109099750F482E30E9455
S1130530B00081E00E94B00082E0809320017DC081
S1130540C801855B9109099750F483E30E94B000C8
S113055082E00E94B00083E0809320016EC0C80155
S11305608B5F9109099750F484E30E94B00083E003
S11305700E94B00084E0809320015FC0C8018653CC
S11305809140099738F485E30E94B00085E0809398
S1130590200153C0C80189569140099738F486E375
S11305A00E94B00086E08093200147C0C8018559AD
S11305B09140099738F487E30E94B00087E0809364
S11305C020013BC0C8018B5B9140099738F488E354
S11305D00E94B00088E0809320012FC0C8018D5D87
S11305E09140099738F489E30E94B00089E0809330
S11305F0200123C0C8018B5F9140099738F48AE237
S11306000E94B0008AE08093200117C0C80186517F
S11306109240099738F480E30E94B0008BE0809305
S113062020010BC00E5212400930110530F483E250
S11306300E94B0008CE0809320012A960FB6F894B3
S1130640DEBF0FBECDBFDF91CF91FF91EF91BF9180
S1130650AF919F918F917F916F915F914F913F9156
S11306602F911F910F910F900FBE0F901F9018950F
S11306701F920F920FB60F9211242F938F939F9373
S1130680EF93FF938091C0002091C6008C71E0919C
S11306906E02EF5FEF7390916D02E91739F0E0930A
S11306A06E02F0E0EF58FD4F208301C082E090918C
S11306B06C02892B80936C02FF91EF919F918F9133
S11306C02F910F900FBE0F901F9018951F920F92AD
S11306D00FB60F9211248F939F93EF93FF939091F2
S11306E0700280916F02981769F0E0916F02EF5FDA
S11306F0EF73E0936F02F0E0EF54FD4F808180933D
S1130700C60005C0E1ECF0E080818F7D8083FF911D
S1130710EF919F918F910F900FBE0F901F9018959E
S11307201092700210926F0210926E0210926D027B
S113073099231CF422E02093C00090789093C50084
S11307408093C40088E98093C10086E08093C2004E
S11307500895209170022F5F2F7390916F022917D3
S1130760E1F3E22FF0E0EF54FD4F80832093700219
S1130770E1ECF0E08081806280830895CF93DF9381
S1130780EC018881882331F021960E94A903899184
S11307908111FBCFDF91CF910895BB274A3031F40B
S11307A0992322F4BDE2909581959F4F0C94D9032F
S11307B0BB27FB015527AA27880F991FAA1FA41737
S11307C010F0A41B83955051B9F7A05DAA3308F02B
S11307D0A95DA193009779F7B111B1931192CB015F
S11307E00C94F203DC01FC01672F71917723E1F78C
S11307F0329704C07C916D9370836291AE17BF07EA
S10B0800C8F30895F894FFCF3A
S1130808000814140505020000000E0A0A1B000063
S11308180000040A1100000000010305091100008A
S11308280D202020202020202020200043686F6FE6
S11308387365207369676E616C3A00310020203259
S11308480020203300202034004144432076616C8A
S113085875653A20000D0A00507265737365643A31
S11308682020202020202000808386898C90939645
S1130878999C9FA2A5A8ABAEB1B3B6B9BCBFC1C47D
S1130888C7C9CCCED1D3D5D8DADCDEE0E2E4E6E8D9
S1130898EAEBEDEFF0F1F3F4F5F6F8F9FAFAFBFC0C
S11308A8FDFDFEFEFEFFFFFFFFFFFFFFFEFEFEFD58
S11308B8FDFCFBFAFAF9F8F6F5F4F3F1F0EFEDEBD9
S11308C8EAE8E6E4E2E0DEDCDAD8D5D3D1CECCC976
S11308D8C7C4C1BFBCB9B6B3B1AEABA8A5A29F9CEF
S11308E8999693908C898683807D7A7774706D6AE3
S11308F86764615E5B5855524F4D4A4744413F3CDB
S1130908393734322F2D2B28262422201E1C1A185E
S113091816151311100F0D0C0B0A0807060605040B
S1130928030302020201010101010101020202039F
S1130938030405060607080A0B0C0D0F10111315FE
S113094816181A1C1E20222426282B2D2F32343741
S1130958393C3F4144474A4D4F5255585B5E6164A8
S10B0968676A6D7074777A7DF3
S9030000FC
