:100000000C9434000C9451000C9451000C94510049
:100010000C9451000C9451000C9451000C9451001C
:100020000C9451000C9451000C9451000C9451000C
:100030000C9451000C9451000C9451000C945100FC
:100040000C942F010C9451000C9448010C947601EF
:100050000C9451000C9451000C9451000C945100DC
:100060000C9451000C94510011241FBECFEFD8E026
:10007000DEBFCDBF11E0A0E0B1E0E6E7F3E002C0F3
:1000800005900D92A630B107D9F721E0A6E0B1E0C6
:1000900001C01D92AD38B207E1F70E94EB000C944D
:1000A000B9010C940000FC01408121E030E002C065
:1000B000220F331F6A95E2F7242B20830895299A93
:1000C00085E08A95F1F7000029980895CF93DF9392
:1000D000D82F662311F0289A01C0289887B18F6025
:1000E00087B9C8B1C07F8D2F82958F708C2B88B94E
:1000F0000E945F00DF70DC2BD8B90E945F00CF60E8
:10010000C8B9DF91CF91089560E00E94660008951C
:10011000611104C080580E948400089580540E9498
:100120008400089581E00E948400089561E00E94A7
:1001300066000895CF93DF93EC012196FC01808146
:10014000882329F00E94960089918111FBCFDF91CD
:10015000CF910895CF93C82F87B18F6087B9209A28
:100160003D9A219A8FEF99EF0197F1F700C00000B7
:10017000419A409A0E945F008FE19EE40197F1F757
:1001800000C000000E945F008FEF90E00197F1F740
:1001900000C000000E945F008FEF90E00197F1F730
:1001A00000C0000040980E945F008FEF90E0019730
:1001B000F1F700C0000088E20E94840088E00E94FD
:1001C00084000E94920086E00E9484008C2F0E948E
:1001D0008400CF91089562E084E290E00E94530091
:1001E00063E084E290E00E94530062E08AE290E0E3
:1001F0000E94530063E08AE290E00E94530064E0B2
:100200008AE290E00E94530065E08AE290E00E945A
:10021000530066E08AE290E00E94530067E08AE2C1
:1002200090E00E9453008CE00E94AA0060E081E010
:100230000E94880080E091E00E949A0085B5897F45
:1002400085BD85B5816085BDEEE6F0E08081816089
:10025000808387E690E00E94A0017894FFCF1F92F0
:100260000F920FB60F9211248F939F931BB815B85E
:100270008091060190910701019690930701809368
:1002800006019F918F910F900FBE0F901F901895B0
:100290001F920F920FB60F9211242F938F939F935B
:1002A000EF93FF938091C0002091C6008C71E09184
:1002B0000A01EF5FEF7390910901E91739F0E093BC
:1002C0000A01F0E0E35FFE4F208301C082E09091DD
:1002D0000801892B80930801FF91EF919F918F91E5
:1002E0002F910F900FBE0F901F9018951F920F9295
:1002F0000FB60F9211248F939F93EF93FF939091DA
:100300000C0180910B01981769F0E0910B01EF5FF0
:10031000EF73E0930B01F0E0E35BFE4F808180938D
:10032000C60005C0E1ECF0E080818F7D8083FF9105
:10033000EF919F918F910F900FBE0F901F90189586
:1003400010920C0110920B0110920A0110920901F7
:1003500099231CF422E02093C00090789093C5006C
:100360008093C40088E98093C10086E08093C20036
:060370000895F894FFCF90
:0603760076616C3A000004
:00000001FF
