S01400006B6E696768745F72696465722E7372656316
S11300000C9434000C943E000C943E000C943E007E
S11300100C943E000C943E000C943E000C943E0064
S11300200C943E000C943E000C943E000C943E0054
S11300300C943E000C943E000C943E000C943E0044
S11300400C943E000C943E000C943E000C943E0034
S11300500C943E000C943E000C943E000C943E0024
S11300600C943E000C943E0011241FBECFEFD8E048
S1130070DEBFCDBF0E9440000C9410010C94000020
S1130080219A229A239A249A259A29982A982B9875
S11300902C982D9852E024E098E080E140E23FEF74
S11300A064E37CE0315060407040E1F700C0000040
S11300B035B1352735B93FEF64E37CE0315060401A
S11300C07040E1F700C0000035B1352735B93FEF86
S11300D064E37CE0315060407040E1F700C0000010
S11300E035B1322735B93FEF64E37CE031506040ED
S11300F07040E1F700C0000035B1322735B93FEF59
S113010064E37CE0315060407040E1F700C00000DF
S113011035B1392735B93FEF64E37CE031506040B5
S11301207040E1F700C0000035B1392735B93FEF21
S113013064E37CE0315060407040E1F700C00000AF
S113014035B1382735B93FEF64E37CE03150604086
S11301507040E1F700C0000035B1382735B93FEFF2
S113016064E37CE0315060407040E1F700C000007F
S113017035B1342735B93FEF64E37CE0315060405A
S11301807040E1F700C0000035B1342735B93FEFC6
S113019064E37CE0315060407040E1F700C000004F
S11301A035B1382735B93FEF64E37CE03150604026
S11301B07040E1F700C0000035B1382735B93FEF92
S11301C064E37CE0315060407040E1F700C000001F
S11301D035B1392735B93FEF64E37CE031506040F5
S11301E07040E1F700C0000035B1392735B93FEF61
S11301F064E37CE0315060407040E1F700C00000EF
S113020035B1322735B93FEF64E37CE031506040CB
S11302107040E1F700C0000035B1322735B93FCF57
S1070220F894FFCF7C
S9030000FC
