S01400006B6E696768745F72696465722E7372656316
S11300000C9434000C9446000C9446000C94460066
S11300100C9446000C9446000C9446000C94460044
S11300200C9446000C9446000C9446000C94460034
S11300300C9446000C9446000C9446000C94460024
S11300400C9446000C9446000C9446000C94460014
S11300500C9446000C9446000C9446000C94460004
S11300600C9446000C94460011241FBECFEFD8E038
S1130070DEBFCDBF21E0A0E0B1E001C01D92A13000
S1130080B207E1F70E9448000C9480000C94000031
S1130090219A229A239A249A259A299A2A982B9863
S11300A02C982D9894E0109200012FEF34E38CE00B
S11300B0215030408040E1F700C0000085B1880F36
S11300C085B9809100018F5F80930001843068F3CB
S11300D014C02FEF34E38CE0215030408040E1F72E
S11300E000C0000085B1869585B9809100018150DA
S11300F0809300018111EDCFD6CF90930001E9CF19
S1070100F894FFCF9D
S9030000FC
